{
  "contractName": "Grader",
  "abi": [
    {
      "inputs": [],
      "payable": false,
      "stateMutability": "nonpayable",
      "type": "constructor"
    },
    {
      "constant": false,
      "inputs": [],
      "name": "kill",
      "outputs": [],
      "payable": false,
      "stateMutability": "nonpayable",
      "type": "function"
    },
    {
      "constant": false,
      "inputs": [
        {
          "name": "instrlist",
          "type": "address[]"
        }
      ],
      "name": "addInstructor",
      "outputs": [
        {
          "name": "added",
          "type": "bool"
        }
      ],
      "payable": false,
      "stateMutability": "nonpayable",
      "type": "function"
    },
    {
      "constant": true,
      "inputs": [],
      "name": "getInstructorsList",
      "outputs": [
        {
          "name": "instrList",
          "type": "address[]"
        }
      ],
      "payable": false,
      "stateMutability": "view",
      "type": "function"
    },
    {
      "constant": false,
      "inputs": [
        {
          "name": "courseID",
          "type": "bytes32"
        },
        {
          "name": "courseName",
          "type": "string"
        },
        {
          "name": "rollList",
          "type": "bytes32[]"
        },
        {
          "name": "studAddr",
          "type": "address[]"
        },
        {
          "name": "TAs",
          "type": "address[]"
        }
      ],
      "name": "addCourse",
      "outputs": [
        {
          "name": "added",
          "type": "bool"
        }
      ],
      "payable": false,
      "stateMutability": "nonpayable",
      "type": "function"
    },
    {
      "constant": false,
      "inputs": [
        {
          "name": "courseID",
          "type": "bytes32"
        },
        {
          "name": "examID",
          "type": "bytes32"
        },
        {
          "name": "maxMarks",
          "type": "uint256"
        },
        {
          "name": "rollList",
          "type": "bytes32[]"
        },
        {
          "name": "marksList",
          "type": "uint256[]"
        }
      ],
      "name": "addExam",
      "outputs": [
        {
          "name": "added",
          "type": "bool"
        }
      ],
      "payable": false,
      "stateMutability": "nonpayable",
      "type": "function"
    },
    {
      "constant": false,
      "inputs": [
        {
          "name": "courseID",
          "type": "bytes32"
        },
        {
          "name": "examID",
          "type": "bytes32"
        },
        {
          "name": "rollList",
          "type": "bytes32[]"
        },
        {
          "name": "marksList",
          "type": "uint256[]"
        }
      ],
      "name": "updateMarks",
      "outputs": [
        {
          "name": "added",
          "type": "bool"
        }
      ],
      "payable": false,
      "stateMutability": "nonpayable",
      "type": "function"
    },
    {
      "constant": false,
      "inputs": [
        {
          "name": "courseID",
          "type": "bytes32"
        },
        {
          "name": "weightageList",
          "type": "uint256[]"
        },
        {
          "name": "gradeCutoffs",
          "type": "uint256[]"
        }
      ],
      "name": "calculateGrades",
      "outputs": [
        {
          "name": "added",
          "type": "bool"
        }
      ],
      "payable": false,
      "stateMutability": "nonpayable",
      "type": "function"
    },
    {
      "constant": true,
      "inputs": [
        {
          "name": "courseID",
          "type": "bytes32"
        }
      ],
      "name": "getProfExamWeightages",
      "outputs": [
        {
          "name": "examslist",
          "type": "bytes32[]"
        },
        {
          "name": "maxMarkslist",
          "type": "uint256[]"
        },
        {
          "name": "weightages",
          "type": "uint256[]"
        }
      ],
      "payable": false,
      "stateMutability": "view",
      "type": "function"
    },
    {
      "constant": true,
      "inputs": [
        {
          "name": "courseID",
          "type": "bytes32"
        },
        {
          "name": "examID",
          "type": "bytes32"
        }
      ],
      "name": "getProfExamMarks",
      "outputs": [
        {
          "name": "rolllist",
          "type": "bytes32[]"
        },
        {
          "name": "markslist",
          "type": "uint256[]"
        },
        {
          "name": "maxmarks",
          "type": "uint256"
        },
        {
          "name": "weightage",
          "type": "uint256"
        }
      ],
      "payable": false,
      "stateMutability": "view",
      "type": "function"
    },
    {
      "constant": true,
      "inputs": [
        {
          "name": "courseID",
          "type": "bytes32"
        },
        {
          "name": "rollNo",
          "type": "bytes32"
        }
      ],
      "name": "getStudentMarksGrades",
      "outputs": [
        {
          "name": "examslist",
          "type": "bytes32[]"
        },
        {
          "name": "weightages",
          "type": "uint256[]"
        },
        {
          "name": "maxMarkslist",
          "type": "uint256[]"
        },
        {
          "name": "markslist",
          "type": "uint256[]"
        },
        {
          "name": "totalmarks",
          "type": "uint256"
        },
        {
          "name": "grade",
          "type": "uint256"
        }
      ],
      "payable": false,
      "stateMutability": "view",
      "type": "function"
    },
    {
      "constant": true,
      "inputs": [
        {
          "name": "courseID",
          "type": "bytes32"
        }
      ],
      "name": "getProfMarksGrades",
      "outputs": [
        {
          "name": "rolllist",
          "type": "bytes32[]"
        },
        {
          "name": "totalmarks",
          "type": "uint256[]"
        },
        {
          "name": "gradelist",
          "type": "uint256[]"
        }
      ],
      "payable": false,
      "stateMutability": "view",
      "type": "function"
    }
  ],
  "bytecode": "0x608060405261010060405190810160405280600a60ff168152602001600960ff168152602001600860ff168152602001600760ff168152602001600660ff168152602001600560ff168152602001600460ff168152602001600060ff16815250600690600862000071929190620000c6565b503480156200007f57600080fd5b50336000806101000a81548173ffffffffffffffffffffffffffffffffffffffff021916908373ffffffffffffffffffffffffffffffffffffffff16021790555062000138565b8260088101928215620000fd579160200282015b82811115620000fc578251829060ff16905591602001919060010190620000da565b5b5090506200010c919062000110565b5090565b6200013591905b808211156200013157600081600090555060010162000117565b5090565b90565b61468580620001486000396000f3006080604052600436106100af576000357c0100000000000000000000000000000000000000000000000000000000900463ffffffff168063018e2ef4146100b457806304c40a461461020c5780631beea99b146102e957806322b086f81461035557806338045e3a146104cf57806341c0e1b51461054d5780635d683a6414610564578063656072b81461064b5780638e9fbd951461071a578063b2c5934714610830578063f5f31ae014610946575b600080fd5b3480156100c057600080fd5b506101f26004803603810190808035600019169060200190929190803590602001908201803590602001908080601f0160208091040260200160405190810160405280939291908181526020018383808284378201915050505050509192919290803590602001908201803590602001908080602002602001604051908101604052809392919081815260200183836020028082843782019150505050505091929192908035906020019082018035906020019080806020026020016040519081016040528093929190818152602001838360200280828437820191505050505050919291929080359060200190820180359060200190808060200260200160405190810160405280939291908181526020018383602002808284378201915050505050509192919290505050610a30565b604051808215151515815260200191505060405180910390f35b34801561021857600080fd5b506102cf6004803603810190808035600019169060200190929190803560001916906020019092919080359060200190820180359060200190808060200260200160405190810160405280939291908181526020018383602002808284378201915050505050509192919290803590602001908201803590602001908080602002602001604051908101604052809392919081815260200183836020028082843782019150505050505091929192905050506110c5565b604051808215151515815260200191505060405180910390f35b3480156102f557600080fd5b506102fe61158f565b6040518080602001828103825283818151815260200191508051906020019060200280838360005b83811015610341578082015181840152602081019050610326565b505050509050019250505060405180910390f35b34801561036157600080fd5b50610392600480360381019080803560001916906020019092919080356000191690602001909291905050506116e1565b604051808060200180602001806020018060200187815260200186815260200185810385528b818151815260200191508051906020019060200280838360005b838110156103ed5780820151818401526020810190506103d2565b5050505090500185810384528a818151815260200191508051906020019060200280838360005b8381101561042f578082015181840152602081019050610414565b50505050905001858103835289818151815260200191508051906020019060200280838360005b83811015610471578082015181840152602081019050610456565b50505050905001858103825288818151815260200191508051906020019060200280838360005b838110156104b3578082015181840152602081019050610498565b505050509050019a505050505050505050505060405180910390f35b3480156104db57600080fd5b5061053360048036038101908080359060200190820180359060200190808060200260200160405190810160405280939291908181526020018383602002808284378201915050505050509192919290505050611bc3565b604051808215151515815260200191505060405180910390f35b34801561055957600080fd5b50610562611e06565b005b34801561057057600080fd5b5061063160048036038101908080356000191690602001909291908035600019169060200190929190803590602001909291908035906020019082018035906020019080806020026020016040519081016040528093929190818152602001838360200280828437820191505050505050919291929080359060200190820180359060200190808060200260200160405190810160405280939291908181526020018383602002808284378201915050505050509192919290505050611e9b565b604051808215151515815260200191505060405180910390f35b34801561065757600080fd5b50610700600480360381019080803560001916906020019092919080359060200190820180359060200190808060200260200160405190810160405280939291908181526020018383602002808284378201915050505050509192919290803590602001908201803590602001908080602002602001604051908101604052809392919081815260200183836020028082843782019150505050505091929192905050506124b4565b604051808215151515815260200191505060405180910390f35b34801561072657600080fd5b5061074960048036038101908080356000191690602001909291905050506127f3565b60405180806020018060200180602001848103845287818151815260200191508051906020019060200280838360005b83811015610794578082015181840152602081019050610779565b50505050905001848103835286818151815260200191508051906020019060200280838360005b838110156107d65780820151818401526020810190506107bb565b50505050905001848103825285818151815260200191508051906020019060200280838360005b838110156108185780820151818401526020810190506107fd565b50505050905001965050505050505060405180910390f35b34801561083c57600080fd5b5061085f6004803603810190808035600019169060200190929190505050612a93565b60405180806020018060200180602001848103845287818151815260200191508051906020019060200280838360005b838110156108aa57808201518184015260208101905061088f565b50505050905001848103835286818151815260200191508051906020019060200280838360005b838110156108ec5780820151818401526020810190506108d1565b50505050905001848103825285818151815260200191508051906020019060200280838360005b8381101561092e578082015181840152602081019050610913565b50505050905001965050505050505060405180910390f35b34801561095257600080fd5b5061098360048036038101908080356000191690602001909291908035600019169060200190929190505050612d33565b604051808060200180602001858152602001848152602001838103835287818151815260200191508051906020019060200280838360005b838110156109d65780820151818401526020810190506109bb565b50505050905001838103825286818151815260200191508051906020019060200280838360005b83811015610a185780820151818401526020810190506109fd565b50505050905001965050505050505060405180910390f35b6000806000600460003373ffffffffffffffffffffffffffffffffffffffff1673ffffffffffffffffffffffffffffffffffffffff16815260200190815260200160002060009054906101000a900460ff168015610ab4575060026000896000191660001916815260200190815260200160002060009054906101000a900460ff16155b1515610b28576040517f08c379a00000000000000000000000000000000000000000000000000000000081526004018080602001828103825260098152602001807f616464436f75727365000000000000000000000000000000000000000000000081525060200191505060405180910390fd5b84518651141515610ba1576040517f08c379a00000000000000000000000000000000000000000000000000000000081526004018080602001828103825260098152602001807f616464436f75727365000000000000000000000000000000000000000000000081525060200191505060405180910390fd5b33600560008a6000191660001916815260200190815260200160002060006101000a81548173ffffffffffffffffffffffffffffffffffffffff021916908373ffffffffffffffffffffffffffffffffffffffff1602179055506001600260008a6000191660001916815260200190815260200160002060006101000a81548160ff021916908315150217905550600188908060018154018082558091505090600182039060005260206000200160009091929091909150906000191690555060a060405190810160405280896000191681526020018881526020013373ffffffffffffffffffffffffffffffffffffffff16815260200187815260200160001515815250600e60008a60001916600019168152602001908152602001600020600082015181600001906000191690556020820151816001019080519060200190610ced929190614395565b5060408201518160020160006101000a81548173ffffffffffffffffffffffffffffffffffffffff021916908373ffffffffffffffffffffffffffffffffffffffff1602179055506060820151816003019080519060200190610d51929190614415565b5060808201518160040160006101000a81548160ff021916908315150217905550905050600091505b855182101561101057600e6000896000191660001916815260200190815260200160002060080160008684815181101515610db157fe5b9060200190602002015173ffffffffffffffffffffffffffffffffffffffff1673ffffffffffffffffffffffffffffffffffffffff16815260200190815260200160002060009054906101000a900460ff161515610f39578482815181101515610e1757fe5b90602001906020020151600e60008a6000191660001916815260200190815260200160002060070160008885815181101515610e4f57fe5b906020019060200201516000191660001916815260200190815260200160002060006101000a81548173ffffffffffffffffffffffffffffffffffffffff021916908373ffffffffffffffffffffffffffffffffffffffff1602179055506001600e60008a6000191660001916815260200190815260200160002060080160008785815181101515610edd57fe5b9060200190602002015173ffffffffffffffffffffffffffffffffffffffff1673ffffffffffffffffffffffffffffffffffffffff16815260200190815260200160002060006101000a81548160ff0219169083151502179055505b600e6000896000191660001916815260200190815260200160002060050160008784815181101515610f6757fe5b906020019060200201516000191660001916815260200190815260200160002060009054906101000a900460ff161515611003576001600e60008a6000191660001916815260200190815260200160002060050160008885815181101515610fcb57fe5b906020019060200201516000191660001916815260200190815260200160002060006101000a81548160ff0219169083151502179055505b8180600101925050610d7a565b600090505b83518110156110b6576001600e60008a600019166000191681526020019081526020016000206006016000868481518110151561104e57fe5b9060200190602002015173ffffffffffffffffffffffffffffffffffffffff1673ffffffffffffffffffffffffffffffffffffffff16815260200190815260200160002060006101000a81548160ff0219169083151502179055508080600101915050611015565b60019250505095945050505050565b6000806000806000600260008a6000191660001916815260200190815260200160002060009054906101000a900460ff1680156111d857503373ffffffffffffffffffffffffffffffffffffffff16600560008b6000191660001916815260200190815260200160002060009054906101000a900473ffffffffffffffffffffffffffffffffffffffff1673ffffffffffffffffffffffffffffffffffffffff1614806111d75750600e60008a6000191660001916815260200190815260200160002060060160003373ffffffffffffffffffffffffffffffffffffffff1673ffffffffffffffffffffffffffffffffffffffff16815260200190815260200160002060009054906101000a900460ff165b5b801561120c5750600e60008a6000191660001916815260200190815260200160002060040160009054906101000a900460ff165b80156112595750600f60008a600019166000191681526020019081526020016000206009016000896000191660001916815260200190815260200160002060009054906101000a900460ff165b15156112cd576040517f08c379a000000000000000000000000000000000000000000000000000000000815260040180806020018281038252600b8152602001807f7570646174654d61726b7300000000000000000000000000000000000000000081525060200191505060405180910390fd5b86518651141515611346576040517f08c379a000000000000000000000000000000000000000000000000000000000815260040180806020018281038252600b8152602001807f7570646174654d61726b7300000000000000000000000000000000000000000081525060200191505060405180910390fd5b600093505b86518410156113e757858481518110151561136257fe5b90602001906020020151600f60008b60001916600019168152602001908152602001600020600a0160008a60001916600019168152602001908152602001600020600201600089878151811015156113b657fe5b906020019060200201516000191660001916815260200190815260200160002081905550838060010194505061134b565b600092505b600e60008a600019166000191681526020019081526020016000206003018054905083101561157f57600e60008a600019166000191681526020019081526020016000206003018381548110151561144057fe5b90600052602060002001549150600090505b600f60008a6000191660001916815260200190815260200160002060000180549050811015611572578760001916600f60008b60001916600019168152602001908152602001600020600001828154811015156114ab57fe5b906000526020600020015460001916141561156557600f60008a60001916600019168152602001908152602001600020600a01600089600019166000191681526020019081526020016000206002016000836000191660001916815260200190815260200160002054600f60008b600019166000191681526020019081526020016000206006018481548110151561153f57fe5b906000526020600020018281548110151561155657fe5b90600052602060002001819055505b8080600101915050611452565b82806001019350506113ec565b6001945050505050949350505050565b60606000809054906101000a900473ffffffffffffffffffffffffffffffffffffffff1673ffffffffffffffffffffffffffffffffffffffff163373ffffffffffffffffffffffffffffffffffffffff16141515611655576040517f08c379a00000000000000000000000000000000000000000000000000000000081526004018080602001828103825260128152602001807f676574496e7374726375746f72734c697374000000000000000000000000000081525060200191505060405180910390fd5b60038054806020026020016040519081016040528092919081815260200182805480156116d757602002820191906000526020600020905b8160009054906101000a900473ffffffffffffffffffffffffffffffffffffffff1673ffffffffffffffffffffffffffffffffffffffff168152602001906001019080831161168d575b5050505050905090565b6060806060806000806000600260008a6000191660001916815260200190815260200160002060009054906101000a900460ff1680156117f757503373ffffffffffffffffffffffffffffffffffffffff16600560008b6000191660001916815260200190815260200160002060009054906101000a900473ffffffffffffffffffffffffffffffffffffffff1673ffffffffffffffffffffffffffffffffffffffff1614806117f65750600e60008a6000191660001916815260200190815260200160002060080160003373ffffffffffffffffffffffffffffffffffffffff1673ffffffffffffffffffffffffffffffffffffffff16815260200190815260200160002060009054906101000a900460ff165b5b80156118445750600e60008a600019166000191681526020019081526020016000206005016000896000191660001916815260200190815260200160002060009054906101000a900460ff165b80156118785750600e60008a6000191660001916815260200190815260200160002060040160009054906101000a900460ff165b15156118ec576040517f08c379a000000000000000000000000000000000000000000000000000000000815260040180806020018281038252600f8152602001807f67657453747564656e744d61726b73000000000000000000000000000000000081525060200191505060405180910390fd5b600f60008a6000191660001916815260200190815260200160002060000180548060200260200160405190810160405280929190818152602001828054801561195857602002820191906000526020600020905b81546000191681526020019060010190808311611940575b50505050509650600f60008a600019166000191681526020019081526020016000206001018054806020026020016040519081016040528092919081815260200182805480156119c757602002820191906000526020600020905b8154815260200190600101908083116119b3575b50505050509550600f60008a60001916600019168152602001908152602001600020600201805480602002602001604051908101604052809291908181526020018280548015611a3657602002820191906000526020600020905b815481526020019060010190808311611a22575b50505050509450600090505b600e60008a6000191660001916815260200190815260200160002060030180549050811015611b44578760001916600e60008b6000191660001916815260200190815260200160002060030182815481101515611a9b57fe5b9060005260206000200154600019161415611b3757600f60008a6000191660001916815260200190815260200160002060060181815481101515611adb57fe5b90600052602060002001805480602002602001604051908101604052809291908181526020018280548015611b2f57602002820191906000526020600020905b815481526020019060010190808311611b1b575b505050505093505b8080600101915050611a42565b600f60008a60001916600019168152602001908152602001600020600c0160008960001916600019168152602001908152602001600020549250600f60008a60001916600019168152602001908152602001600020600d0160008960001916600019168152602001908152602001600020549150509295509295509295565b6000806000809054906101000a900473ffffffffffffffffffffffffffffffffffffffff1673ffffffffffffffffffffffffffffffffffffffff163373ffffffffffffffffffffffffffffffffffffffff16141515611c8a576040517f08c379a000000000000000000000000000000000000000000000000000000000815260040180806020018281038252600d8152602001807f616464496e7374727563746f720000000000000000000000000000000000000081525060200191505060405180910390fd5b600090505b8251811015611dfc57600460008483815181101515611caa57fe5b9060200190602002015173ffffffffffffffffffffffffffffffffffffffff1673ffffffffffffffffffffffffffffffffffffffff16815260200190815260200160002060009054906101000a900460ff161515611def5760038382815181101515611d1257fe5b9060200190602002015190806001815401808255809150509060018203906000526020600020016000909192909190916101000a81548173ffffffffffffffffffffffffffffffffffffffff021916908373ffffffffffffffffffffffffffffffffffffffff160217905550506001600460008584815181101515611d9357fe5b9060200190602002015173ffffffffffffffffffffffffffffffffffffffff1673ffffffffffffffffffffffffffffffffffffffff16815260200190815260200160002060006101000a81548160ff0219169083151502179055505b8080600101915050611c8f565b6001915050919050565b6000809054906101000a900473ffffffffffffffffffffffffffffffffffffffff1673ffffffffffffffffffffffffffffffffffffffff163373ffffffffffffffffffffffffffffffffffffffff16141515611e6157600080fd5b6000809054906101000a900473ffffffffffffffffffffffffffffffffffffffff1673ffffffffffffffffffffffffffffffffffffffff16ff5b600080600060026000896000191660001916815260200190815260200160002060009054906101000a900460ff168015611fab57503373ffffffffffffffffffffffffffffffffffffffff16600560008a6000191660001916815260200190815260200160002060009054906101000a900473ffffffffffffffffffffffffffffffffffffffff1673ffffffffffffffffffffffffffffffffffffffff161480611faa5750600e6000896000191660001916815260200190815260200160002060060160003373ffffffffffffffffffffffffffffffffffffffff1673ffffffffffffffffffffffffffffffffffffffff16815260200190815260200160002060009054906101000a900460ff165b5b151561201f576040517f08c379a00000000000000000000000000000000000000000000000000000000081526004018080602001828103825260078152602001807f6164644578616d0000000000000000000000000000000000000000000000000081525060200191505060405180910390fd5b84518451141515612098576040517f08c379a00000000000000000000000000000000000000000000000000000000081526004018080602001828103825260078152602001807f6164644578616d0000000000000000000000000000000000000000000000000081525060200191505060405180910390fd5b600e6000896000191660001916815260200190815260200160002060040160009054906101000a900460ff1615156120d5576120d388613078565b505b600f600089600019166000191681526020019081526020016000206009016000886000191660001916815260200190815260200160002060009054906101000a900460ff1615151561218f576040517f08c379a00000000000000000000000000000000000000000000000000000000081526004018080602001828103825260078152602001807f6164644578616d0000000000000000000000000000000000000000000000000081525060200191505060405180910390fd5b6001600f60008a600019166000191681526020019081526020016000206009016000896000191660001916815260200190815260200160002060006101000a81548160ff021916908315150217905550600f60008960001916600019168152602001908152602001600020600001879080600181540180825580915050906001820390600052602060002001600090919290919091509060001916905550600f6000896000191660001916815260200190815260200160002060020186908060018154018082558091505090600182039060005260206000200160009091929091909150555060408051908101604052808860001916815260200187815250600f60008a60001916600019168152602001908152602001600020600a01600089600019166000191681526020019081526020016000206000820151816000019060001916905560208201518160010155905050600091505b84518210156123835783828151811015156122fe57fe5b90602001906020020151600f60008a60001916600019168152602001908152602001600020600a01600089600019166000191681526020019081526020016000206002016000878581518110151561235257fe5b90602001906020020151600019166000191681526020019081526020016000208190555081806001019250506122e7565b600090505b600e60008960001916600019168152602001908152602001600020600301805490508110156124a557600f60008960001916600019168152602001908152602001600020600601818154811015156123dc57fe5b90600052602060002001600f60008a60001916600019168152602001908152602001600020600a01600089600019166000191681526020019081526020016000206002016000600e60008c600019166000191681526020019081526020016000206003018481548110151561244d57fe5b9060005260206000200154600019166000191681526020019081526020016000205490806001815401808255809150509060018203906000526020600020016000909192909190915055508080600101915050612388565b60019250505095945050505050565b60008060008060026000886000191660001916815260200190815260200160002060009054906101000a900460ff16801561255557503373ffffffffffffffffffffffffffffffffffffffff1660056000896000191660001916815260200190815260200160002060009054906101000a900473ffffffffffffffffffffffffffffffffffffffff1673ffffffffffffffffffffffffffffffffffffffff16145b80156125895750600e6000886000191660001916815260200190815260200160002060040160009054906101000a900460ff165b15156125fd576040517f08c379a000000000000000000000000000000000000000000000000000000000815260040180806020018281038252600f8152602001807f63616c63756c617465477261646573000000000000000000000000000000000081525060200191505060405180910390fd5b61260787876134b6565b506126128786613796565b5061261c87613994565b50600092505b600e60008860001916600019168152602001908152602001600020600301805490508310156127db57600091505b600f60008860001916600019168152602001908152602001600020600301805490508210156127ce57600e60008860001916600019168152602001908152602001600020600301838154811015156126a457fe5b90600052602060002001549050600f60008860001916600019168152602001908152602001600020600301828154811015156126dc57fe5b9060005260206000200154600f60008960001916600019168152602001908152602001600020600c0160008360001916600019168152602001908152602001600020541015156127c15760068260088110151561273557fe5b0154600f600089600019166000191681526020019081526020016000206004018481548110151561276257fe5b906000526020600020018190555060068260088110151561277f57fe5b0154600f60008960001916600019168152602001908152602001600020600d0160008360001916600019168152602001908152602001600020819055506127ce565b8180600101925050612650565b8280600101935050612622565b6127e487613f12565b50600193505050509392505050565b606080606060026000856000191660001916815260200190815260200160002060009054906101000a900460ff16801561289357503373ffffffffffffffffffffffffffffffffffffffff1660056000866000191660001916815260200190815260200160002060009054906101000a900473ffffffffffffffffffffffffffffffffffffffff1673ffffffffffffffffffffffffffffffffffffffff16145b80156128c75750600e6000856000191660001916815260200190815260200160002060040160009054906101000a900460ff165b151561293b576040517f08c379a00000000000000000000000000000000000000000000000000000000081526004018080602001828103825260158152602001807f67657450726f664578616d57656967687461676573000000000000000000000081525060200191505060405180910390fd5b600f600085600019166000191681526020019081526020016000206000018054806020026020016040519081016040528092919081815260200182805480156129a757602002820191906000526020600020905b8154600019168152602001906001019080831161298f575b50505050509250600f60008560001916600019168152602001908152602001600020600201805480602002602001604051908101604052809291908181526020018280548015612a1657602002820191906000526020600020905b815481526020019060010190808311612a02575b50505050509150600f60008560001916600019168152602001908152602001600020600101805480602002602001604051908101604052809291908181526020018280548015612a8557602002820191906000526020600020905b815481526020019060010190808311612a71575b505050505090509193909250565b606080606060026000856000191660001916815260200190815260200160002060009054906101000a900460ff168015612b3357503373ffffffffffffffffffffffffffffffffffffffff1660056000866000191660001916815260200190815260200160002060009054906101000a900473ffffffffffffffffffffffffffffffffffffffff1673ffffffffffffffffffffffffffffffffffffffff16145b8015612b675750600e6000856000191660001916815260200190815260200160002060040160009054906101000a900460ff165b1515612bdb576040517f08c379a000000000000000000000000000000000000000000000000000000000815260040180806020018281038252600d8152602001807f67657450726f664772616465730000000000000000000000000000000000000081525060200191505060405180910390fd5b600e60008560001916600019168152602001908152602001600020600301805480602002602001604051908101604052809291908181526020018280548015612c4757602002820191906000526020600020905b81546000191681526020019060010190808311612c2f575b50505050509250600f60008560001916600019168152602001908152602001600020600501805480602002602001604051908101604052809291908181526020018280548015612cb657602002820191906000526020600020905b815481526020019060010190808311612ca2575b50505050509150600f60008560001916600019168152602001908152602001600020600401805480602002602001604051908101604052809291908181526020018280548015612d2557602002820191906000526020600020905b815481526020019060010190808311612d11575b505050505090509193909250565b606080600080600060026000886000191660001916815260200190815260200160002060009054906101000a900460ff168015612dd657503373ffffffffffffffffffffffffffffffffffffffff1660056000896000191660001916815260200190815260200160002060009054906101000a900473ffffffffffffffffffffffffffffffffffffffff1673ffffffffffffffffffffffffffffffffffffffff16145b8015612e0a5750600e6000886000191660001916815260200190815260200160002060040160009054906101000a900460ff165b1515612e7e576040517f08c379a000000000000000000000000000000000000000000000000000000000815260040180806020018281038252600d8152602001807f67657450726f664772616465730000000000000000000000000000000000000081525060200191505060405180910390fd5b600e60008860001916600019168152602001908152602001600020600301805480602002602001604051908101604052809291908181526020018280548015612eea57602002820191906000526020600020905b81546000191681526020019060010190808311612ed2575b50505050509450600f60008860001916600019168152602001908152602001600020600b0160008760001916600019168152602001908152602001600020549150600090505b600f600088600019166000191681526020019081526020016000206000018054905081101561306e578560001916600f6000896000191660001916815260200190815260200160002060000182815481101515612f8957fe5b906000526020600020015460001916141561306157600f6000886000191660001916815260200190815260200160002060020181815481101515612fc957fe5b90600052602060002001549250600f600088600019166000191681526020019081526020016000206007018181548110151561300157fe5b9060005260206000200180548060200260200160405190810160405280929190818152602001828054801561305557602002820191906000526020600020905b815481526020019060010190808311613041575b5050505050935061306e565b8080600101915050612f30565b5092959194509250565b6000606080606080606080606080600260008b6000191660001916815260200190815260200160002060009054906101000a900460ff16801561319157503373ffffffffffffffffffffffffffffffffffffffff16600560008c6000191660001916815260200190815260200160002060009054906101000a900473ffffffffffffffffffffffffffffffffffffffff1673ffffffffffffffffffffffffffffffffffffffff1614806131905750600e60008b6000191660001916815260200190815260200160002060060160003373ffffffffffffffffffffffffffffffffffffffff1673ffffffffffffffffffffffffffffffffffffffff16815260200190815260200160002060009054906101000a900460ff165b5b1515613205576040517f08c379a000000000000000000000000000000000000000000000000000000000815260040180806020018281038252600e8152602001807f616464436f757273654d61726b7300000000000000000000000000000000000081525060200191505060405180910390fd5b600e60008b60001916600019168152602001908152602001600020600301805490506040519080825280602002602001820160405280156132555781602001602082028038833980820191505090505b509350600e60008b60001916600019168152602001908152602001600020600301805490506040519080825280602002602001820160405280156132a85781602001602082028038833980820191505090505b509250600e60008b600019166000191681526020019081526020016000206003018054905060405190808252806020026020018201604052801561330057816020015b60608152602001906001900390816132eb5790505b5091506101206040519081016040528089815260200188815260200187815260200186815260200185815260200184815260200183815260200182815260200160001515815250600f60008c60001916600019168152602001908152602001600020600082015181600001908051906020019061337e929190614415565b50602082015181600101908051906020019061339b929190614468565b5060408201518160020190805190602001906133b8929190614468565b5060608201518160030190805190602001906133d5929190614468565b5060808201518160040190805190602001906133f2929190614468565b5060a082015181600501908051906020019061340f929190614468565b5060c082015181600601908051906020019061342c9291906144b5565b5060e08201518160070190805190602001906134499291906144b5565b506101008201518160080160006101000a81548160ff0219169083151502179055509050506001600e60008c6000191660001916815260200190815260200160002060040160006101000a81548160ff021916908315150217905550600198505050505050505050919050565b60008060026000856000191660001916815260200190815260200160002060009054906101000a900460ff16801561355457503373ffffffffffffffffffffffffffffffffffffffff1660056000866000191660001916815260200190815260200160002060009054906101000a900473ffffffffffffffffffffffffffffffffffffffff1673ffffffffffffffffffffffffffffffffffffffff16145b80156135885750600e6000856000191660001916815260200190815260200160002060040160009054906101000a900460ff165b15156135fc576040517f08c379a000000000000000000000000000000000000000000000000000000000815260040180806020018281038252600d8152602001807f736574576569676874616765730000000000000000000000000000000000000081525060200191505060405180910390fd5b8251600f6000866000191660001916815260200190815260200160002060000180549050141515613695576040517f08c379a000000000000000000000000000000000000000000000000000000000815260040180806020018281038252600d8152602001807f736574576569676874616765730000000000000000000000000000000000000081525060200191505060405180910390fd5b82600f6000866000191660001916815260200190815260200160002060010190805190602001906136c7929190614515565b50600090505b600f600085600019166000191681526020019081526020016000206000018054905081101561378b57828181518110151561370457fe5b90602001906020020151600f60008660001916600019168152602001908152602001600020600b016000600f600088600019166000191681526020019081526020016000206000018481548110151561375957fe5b9060005260206000200154600019166000191681526020019081526020016000208190555080806001019150506136cd565b600191505092915050565b600060026000846000191660001916815260200190815260200160002060009054906101000a900460ff16801561383357503373ffffffffffffffffffffffffffffffffffffffff1660056000856000191660001916815260200190815260200160002060009054906101000a900473ffffffffffffffffffffffffffffffffffffffff1673ffffffffffffffffffffffffffffffffffffffff16145b80156138675750600e6000846000191660001916815260200190815260200160002060040160009054906101000a900460ff165b15156138db576040517f08c379a000000000000000000000000000000000000000000000000000000000815260040180806020018281038252600f8152602001807f73657447726164654375746f666673000000000000000000000000000000000081525060200191505060405180910390fd5b60016008038251141515613957576040517f08c379a000000000000000000000000000000000000000000000000000000000815260040180806020018281038252600f8152602001807f73657447726164654375746f666673000000000000000000000000000000000081525060200191505060405180910390fd5b81600f600085600019166000191681526020019081526020016000206003019080519060200190613989929190614515565b506001905092915050565b600080600080600080600080600080600260008c6000191660001916815260200190815260200160002060009054906101000a900460ff168015613a3e57503373ffffffffffffffffffffffffffffffffffffffff16600560008d6000191660001916815260200190815260200160002060009054906101000a900473ffffffffffffffffffffffffffffffffffffffff1673ffffffffffffffffffffffffffffffffffffffff16145b8015613a725750600e60008c6000191660001916815260200190815260200160002060040160009054906101000a900460ff165b1515613ae6576040517f08c379a000000000000000000000000000000000000000000000000000000000815260040180806020018281038252600e8152602001807f63616c63756c617465546f74616c00000000000000000000000000000000000081525060200191505060405180910390fd5b6103e89850600097505b600e60008c6000191660001916815260200190815260200160002060030180549050881015613b98576000600f60008d60001916600019168152602001908152602001600020600c016000600e60008f600019166000191681526020019081526020016000206003018b815481101515613b6657fe5b906000526020600020015460001916600019168152602001908152602001600020819055508780600101985050613af0565b600096505b600f60008c6000191660001916815260200190815260200160002060000180549050871015613d9c57600f60008c6000191660001916815260200190815260200160002060000187815481101515613bf157fe5b90600052602060002001549550600f60008c60001916600019168152602001908152602001600020600a0160008760001916600019168152602001908152602001600020600101549450600f60008c60001916600019168152602001908152602001600020600b0160008760001916600019168152602001908152602001600020549350600092505b600e60008c6000191660001916815260200190815260200160002060030180549050831015613d8f57600e60008c6000191660001916815260200190815260200160002060030183815481101515613cce57fe5b9060005260206000200154915084848a600f60008f60001916600019168152602001908152602001600020600a0160008a6000191660001916815260200190815260200160002060020160008660001916600019168152602001908152602001600020540202811515613d3d57fe5b04600f60008d60001916600019168152602001908152602001600020600c0160008460001916600019168152602001908152602001600020600082825401925050819055508280600101935050613c7a565b8680600101975050613b9d565b600090505b600e60008c6000191660001916815260200190815260200160002060030180549050811015613f005788600f60008d60001916600019168152602001908152602001600020600c016000600e60008f6000191660001916815260200190815260200160002060030184815481101515613e1657fe5b9060005260206000200154600019166000191681526020019081526020016000206000828254811515613e4557fe5b0492505081905550600f60008c60001916600019168152602001908152602001600020600c016000600e60008e6000191660001916815260200190815260200160002060030183815481101515613e9857fe5b90600052602060002001546000191660001916815260200190815260200160002054600f60008d6000191660001916815260200190815260200160002060050182815481101515613ee557fe5b90600052602060002001819055508080600101915050613da1565b60019950505050505050505050919050565b600080600080600060026000876000191660001916815260200190815260200160002060009054906101000a900460ff168015613fb557503373ffffffffffffffffffffffffffffffffffffffff1660056000886000191660001916815260200190815260200160002060009054906101000a900473ffffffffffffffffffffffffffffffffffffffff1673ffffffffffffffffffffffffffffffffffffffff16145b8015613fe95750600e6000876000191660001916815260200190815260200160002060040160009054906101000a900460ff165b151561405d576040517f08c379a000000000000000000000000000000000000000000000000000000000815260040180806020018281038252600f8152602001807f676574496e76657273654d61726b73000000000000000000000000000000000081525060200191505060405180910390fd5b600f6000876000191660001916815260200190815260200160002060080160009054906101000a900460ff16151561427457600f60008760001916600019168152602001908152602001600020600001805490506040519080825280602002602001820160405280156140e457816020015b60608152602001906001900390816140cf5790505b50600f600088600019166000191681526020019081526020016000206007019080519060200190614116929190614562565b50600093505b600f600087600019166000191681526020019081526020016000206000018054905084101561423857600092505b600e600087600019166000191681526020019081526020016000206003018054905083101561422b57600f600087600019166000191681526020019081526020016000206007018481548110151561419e57fe5b90600052602060002001600f60008860001916600019168152602001908152602001600020600601848154811015156141d357fe5b90600052602060002001858154811015156141ea57fe5b90600052602060002001549080600181540180825580915050906001820390600052602060002001600090919290919091505550828060010193505061414a565b838060010194505061411c565b6001600f6000886000191660001916815260200190815260200160002060080160006101000a81548160ff021916908315150217905550614388565b600091505b600f600087600019166000191681526020019081526020016000206000018054905082101561438757600090505b600e600087600019166000191681526020019081526020016000206003018054905081101561437a57600f60008760001916600019168152602001908152602001600020600601818154811015156142fb57fe5b906000526020600020018281548110151561431257fe5b9060005260206000200154600f600088600019166000191681526020019081526020016000206007018381548110151561434857fe5b906000526020600020018281548110151561435f57fe5b906000526020600020018190555080806001019150506142a7565b8180600101925050614279565b5b6001945050505050919050565b828054600181600116156101000203166002900490600052602060002090601f016020900481019282601f106143d657805160ff1916838001178555614404565b82800160010185558215614404579182015b828111156144035782518255916020019190600101906143e8565b5b50905061441191906145c2565b5090565b828054828255906000526020600020908101928215614457579160200282015b82811115614456578251829060001916905591602001919060010190614435565b5b50905061446491906145e7565b5090565b8280548282559060005260206000209081019282156144a4579160200282015b828111156144a3578251825591602001919060010190614488565b5b5090506144b191906145c2565b5090565b828054828255906000526020600020908101928215614504579160200282015b828111156145035782518290805190602001906144f3929190614468565b50916020019190600101906144d5565b5b509050614511919061460c565b5090565b828054828255906000526020600020908101928215614551579160200282015b82811115614550578251825591602001919060010190614535565b5b50905061455e91906145c2565b5090565b8280548282559060005260206000209081019282156145b1579160200282015b828111156145b05782518290805190602001906145a0929190614468565b5091602001919060010190614582565b5b5090506145be919061460c565b5090565b6145e491905b808211156145e05760008160009055506001016145c8565b5090565b90565b61460991905b808211156146055760008160009055506001016145ed565b5090565b90565b61463591905b8082111561463157600081816146289190614638565b50600101614612565b5090565b90565b508054600082559060005260206000209081019061465691906145c2565b505600a165627a7a72305820d630b579a573717acca8a6ffacd0e021c1ebb0a2af4d01a1965edc880be073c70029",
  "source": "pragma solidity ^0.4.26;\r\n\r\ncontract Grader {\r\n    address private admin;\r\n    bytes32[] private courseIDList;\r\n    mapping(bytes32 => bool) courseIds;\r\n    address[] private instructorsList;\r\n    mapping(address => bool) instructors;\r\n    mapping(bytes32 => address) courseInstructor;\r\n    uint256[8] gradeChart = [10, 9, 8, 7, 6, 5, 4, 0];\r\n\r\n    constructor() public {\r\n        admin = msg.sender;\r\n    }\r\n\r\n    function kill() public {\r\n        require(msg.sender == admin);\r\n        selfdestruct(admin);\r\n    }\r\n\r\n    struct Exam {\r\n        bytes32 examID;\r\n        uint256 maxMarks;\r\n        mapping(bytes32 => uint256) marks;\r\n    }\r\n\r\n    struct Course {\r\n        bytes32 courseID;\r\n        string courseName;\r\n        address instructor;\r\n        bytes32[] rollList;\r\n        bool marksExist;\r\n        mapping(bytes32 => bool) rollNoVer;\r\n        mapping(address => bool) TAs;\r\n        mapping(bytes32 => address) students;\r\n        mapping(address => bool) studentAddrVer;\r\n    }\r\n\r\n    struct Marks {\r\n        bytes32[] examIDList;\r\n        uint256[] weightageList;\r\n        uint256[] maxMarksList;\r\n        uint256[] gradeCutoffs;\r\n        uint256[] gradeList;\r\n        uint256[] totalMarksList;\r\n        uint256[][] marksList;\r\n        uint256[][] invMarksList;\r\n        bool invMarksExist;\r\n        mapping(bytes32 => bool) examIds;\r\n        mapping(bytes32 => Exam) exams;\r\n        mapping(bytes32 => uint256) weightage;\r\n        mapping(bytes32 => uint256) totalMarks;\r\n        mapping(bytes32 => uint256) grades;\r\n    }\r\n\r\n    mapping(bytes32 => Course) courses;\r\n    mapping(bytes32 => Marks) courseMarks;\r\n\r\n    function addInstructor(address[] memory instrlist)\r\n        public\r\n        returns (bool added)\r\n    {\r\n        require(msg.sender == admin, \"addInstructor\");\r\n        for (uint256 i = 0; i < instrlist.length; i++) {\r\n            if (!instructors[instrlist[i]]) {\r\n                instructorsList.push(instrlist[i]);\r\n                instructors[instrlist[i]] = true;\r\n            }\r\n        }\r\n        added = true;\r\n    }\r\n\r\n    function getInstructorsList()\r\n        public\r\n        view\r\n        returns (address[] memory instrList)\r\n    {\r\n        require(msg.sender == admin, \"getInstrcutorsList\");\r\n        instrList = instructorsList;\r\n    }\r\n\r\n    function addCourse(\r\n        bytes32 courseID,\r\n        string memory courseName,\r\n        bytes32[] memory rollList,\r\n        address[] memory studAddr,\r\n        address[] memory TAs\r\n    ) public returns (bool added) {\r\n        require(instructors[msg.sender] && (!courseIds[courseID]), \"addCourse\");\r\n        require(rollList.length == studAddr.length, \"addCourse\");\r\n        courseInstructor[courseID] = msg.sender;\r\n        courseIds[courseID] = true;\r\n        courseIDList.push(courseID);\r\n        courses[courseID] = Course(\r\n            courseID,\r\n            courseName,\r\n            msg.sender,\r\n            rollList,\r\n            false\r\n        );\r\n        for (uint256 i = 0; i < rollList.length; i++) {\r\n            if (!courses[courseID].studentAddrVer[studAddr[i]]) {\r\n                courses[courseID].students[rollList[i]] = studAddr[i];\r\n                courses[courseID].studentAddrVer[studAddr[i]] = true;\r\n            }\r\n            if (!courses[courseID].rollNoVer[rollList[i]])\r\n                courses[courseID].rollNoVer[rollList[i]] = true;\r\n        }\r\n        for (uint256 j = 0; j < TAs.length; j++)\r\n            courses[courseID].TAs[TAs[j]] = true;\r\n        added = true;\r\n    }\r\n\r\n    function addCourseMarks(bytes32 courseID) private returns (bool added) {\r\n        require(\r\n            courseIds[courseID] &&\r\n                ((courseInstructor[courseID] == msg.sender) ||\r\n                    courses[courseID].TAs[msg.sender]),\r\n            \"addCourseMarks\"\r\n        );\r\n        bytes32[] memory examIDList;\r\n        uint256[] memory weightageList;\r\n        uint256[] memory maxMarksList;\r\n        uint256[] memory gradeCutoffs;\r\n        uint256[] memory gradeList = new uint256[](\r\n            courses[courseID].rollList.length\r\n        );\r\n        uint256[] memory totalMarksList = new uint256[](\r\n            courses[courseID].rollList.length\r\n        );\r\n        uint256[][] memory marksList = new uint256[][](\r\n            courses[courseID].rollList.length\r\n        );\r\n        uint256[][] memory invMarksList;\r\n        courseMarks[courseID] = Marks(\r\n            examIDList,\r\n            weightageList,\r\n            maxMarksList,\r\n            gradeCutoffs,\r\n            gradeList,\r\n            totalMarksList,\r\n            marksList,\r\n            invMarksList,\r\n            false\r\n        );\r\n        courses[courseID].marksExist = true;\r\n        added = true;\r\n    }\r\n\r\n    function addExam(\r\n        bytes32 courseID,\r\n        bytes32 examID,\r\n        uint256 maxMarks,\r\n        bytes32[] memory rollList,\r\n        uint256[] memory marksList\r\n    ) public returns (bool added) {\r\n        require(\r\n            courseIds[courseID] &&\r\n                ((courseInstructor[courseID] == msg.sender) ||\r\n                    courses[courseID].TAs[msg.sender]),\r\n            \"addExam\"\r\n        );\r\n        require(marksList.length == rollList.length, \"addExam\");\r\n        if (!courses[courseID].marksExist) addCourseMarks(courseID);\r\n        require(!courseMarks[courseID].examIds[examID], \"addExam\");\r\n        courseMarks[courseID].examIds[examID] = true;\r\n        courseMarks[courseID].examIDList.push(examID);\r\n        courseMarks[courseID].maxMarksList.push(maxMarks);\r\n        courseMarks[courseID].exams[examID] = Exam(examID, maxMarks);\r\n        for (uint256 k = 0; k < rollList.length; k++) {\r\n            courseMarks[courseID].exams[examID].marks[rollList[k]] = marksList[\r\n                k\r\n            ];\r\n        }\r\n        for (uint256 i = 0; i < courses[courseID].rollList.length; i++) {\r\n            courseMarks[courseID].marksList[i].push(\r\n                courseMarks[courseID].exams[examID].marks[\r\n                    courses[courseID].rollList[i]\r\n                ]\r\n            );\r\n        }\r\n        added = true;\r\n    }\r\n\r\n    function updateMarks(\r\n        bytes32 courseID,\r\n        bytes32 examID,\r\n        bytes32[] memory rollList,\r\n        uint256[] memory marksList\r\n    ) public returns (bool added) {\r\n        require(\r\n            courseIds[courseID] &&\r\n                ((courseInstructor[courseID] == msg.sender) ||\r\n                    courses[courseID].TAs[msg.sender]) &&\r\n                courses[courseID].marksExist &&\r\n                courseMarks[courseID].examIds[examID],\r\n            \"updateMarks\"\r\n        );\r\n        require(marksList.length == rollList.length, \"updateMarks\");\r\n        for (uint256 k = 0; k < rollList.length; k++) {\r\n            courseMarks[courseID].exams[examID].marks[rollList[k]] = marksList[\r\n                k\r\n            ];\r\n        }\r\n        for (uint256 i = 0; i < courses[courseID].rollList.length; i++) {\r\n            bytes32 roll_no = courses[courseID].rollList[i];\r\n            for (\r\n                uint256 j = 0;\r\n                j < courseMarks[courseID].examIDList.length;\r\n                j++\r\n            ) {\r\n                if (courseMarks[courseID].examIDList[j] == examID) {\r\n                    courseMarks[courseID].marksList[i][j] = courseMarks[\r\n                        courseID\r\n                    ].exams[examID].marks[roll_no];\r\n                }\r\n            }\r\n        }\r\n        added = true;\r\n    }\r\n\r\n    function setWeightages(bytes32 courseID, uint256[] memory weightageList)\r\n        private\r\n        returns (bool added)\r\n    {\r\n        require(\r\n            courseIds[courseID] &&\r\n                (courseInstructor[courseID] == msg.sender) &&\r\n                courses[courseID].marksExist,\r\n            \"setWeightages\"\r\n        );\r\n        require(\r\n            courseMarks[courseID].examIDList.length == weightageList.length,\r\n            \"setWeightages\"\r\n        );\r\n        courseMarks[courseID].weightageList = weightageList;\r\n        for (uint256 i = 0; i < courseMarks[courseID].examIDList.length; i++)\r\n            courseMarks[courseID].weightage[\r\n                courseMarks[courseID].examIDList[i]\r\n            ] = weightageList[i];\r\n        added = true;\r\n    }\r\n\r\n    function setGradeCutoffs(bytes32 courseID, uint256[] memory gradeCutoffs)\r\n        private\r\n        returns (bool added)\r\n    {\r\n        require(\r\n            courseIds[courseID] &&\r\n                (courseInstructor[courseID] == msg.sender) &&\r\n                courses[courseID].marksExist,\r\n            \"setGradeCutoffs\"\r\n        );\r\n        require(\r\n            gradeCutoffs.length == (gradeChart.length - 1),\r\n            \"setGradeCutoffs\"\r\n        );\r\n        courseMarks[courseID].gradeCutoffs = gradeCutoffs;\r\n        added = true;\r\n    }\r\n\r\n    function calculateTotal(bytes32 courseID) private returns (bool added) {\r\n        require(\r\n            courseIds[courseID] &&\r\n                (courseInstructor[courseID] == msg.sender) &&\r\n                courses[courseID].marksExist,\r\n            \"calculateTotal\"\r\n        );\r\n        uint256 pres = 1000;\r\n        for (uint256 p = 0; p < courses[courseID].rollList.length; p++) {\r\n            courseMarks[courseID].totalMarks[courses[courseID].rollList[p]] = 0;\r\n        }\r\n        for (uint256 i = 0; i < courseMarks[courseID].examIDList.length; i++) {\r\n            bytes32 exam_id = courseMarks[courseID].examIDList[i];\r\n            uint256 maxmarks = courseMarks[courseID].exams[exam_id].maxMarks;\r\n            uint256 weightage = courseMarks[courseID].weightage[exam_id];\r\n            for (uint256 j = 0; j < courses[courseID].rollList.length; j++) {\r\n                bytes32 roll_no = courses[courseID].rollList[j];\r\n                courseMarks[courseID].totalMarks[roll_no] += ((courseMarks[\r\n                    courseID\r\n                ].exams[exam_id].marks[roll_no] *\r\n                    pres *\r\n                    weightage) / maxmarks);\r\n            }\r\n        }\r\n        for (uint256 k = 0; k < courses[courseID].rollList.length; k++) {\r\n            courseMarks[courseID].totalMarks[\r\n                courses[courseID].rollList[k]\r\n            ] /= pres;\r\n            courseMarks[courseID].totalMarksList[k] = courseMarks[courseID]\r\n                .totalMarks[courses[courseID].rollList[k]];\r\n        }\r\n        added = true;\r\n    }\r\n\r\n    function calculateGrades(\r\n        bytes32 courseID,\r\n        uint256[] memory weightageList,\r\n        uint256[] memory gradeCutoffs\r\n    ) public returns (bool added) {\r\n        require(\r\n            courseIds[courseID] &&\r\n                (courseInstructor[courseID] == msg.sender) &&\r\n                courses[courseID].marksExist,\r\n            \"calculateGrades\"\r\n        );\r\n        setWeightages(courseID, weightageList);\r\n        setGradeCutoffs(courseID, gradeCutoffs);\r\n        calculateTotal(courseID);\r\n        for (uint256 i = 0; i < courses[courseID].rollList.length; i++) {\r\n            for (\r\n                uint256 j = 0;\r\n                j < courseMarks[courseID].gradeCutoffs.length;\r\n                j++\r\n            ) {\r\n                bytes32 roll_no = courses[courseID].rollList[i];\r\n                if (\r\n                    courseMarks[courseID].totalMarks[roll_no] >=\r\n                    courseMarks[courseID].gradeCutoffs[j]\r\n                ) {\r\n                    courseMarks[courseID].gradeList[i] = gradeChart[j];\r\n                    courseMarks[courseID].grades[roll_no] = gradeChart[j];\r\n                    break;\r\n                }\r\n            }\r\n        }\r\n        getInverseMarks(courseID);\r\n        added = true;\r\n    }\r\n\r\n    function getProfExamWeightages(bytes32 courseID)\r\n        public\r\n        view\r\n        returns (\r\n            bytes32[] memory examslist,\r\n            uint256[] memory maxMarkslist,\r\n            uint256[] memory weightages\r\n        )\r\n    {\r\n        require(\r\n            courseIds[courseID] &&\r\n                (courseInstructor[courseID] == msg.sender) &&\r\n                courses[courseID].marksExist,\r\n            \"getProfExamWeightages\"\r\n        );\r\n        examslist = courseMarks[courseID].examIDList;\r\n        maxMarkslist = courseMarks[courseID].maxMarksList;\r\n        weightages = courseMarks[courseID].weightageList;\r\n    }\r\n\r\n    function getInverseMarks(bytes32 courseID) private returns (bool added) {\r\n        require(\r\n            courseIds[courseID] &&\r\n                (courseInstructor[courseID] == msg.sender) &&\r\n                courses[courseID].marksExist,\r\n            \"getInverseMarks\"\r\n        );\r\n        if (!courseMarks[courseID].invMarksExist) {\r\n            courseMarks[courseID].invMarksList = new uint256[][](\r\n                courseMarks[courseID].examIDList.length\r\n            );\r\n            for (\r\n                uint256 j = 0;\r\n                j < courseMarks[courseID].examIDList.length;\r\n                j++\r\n            )\r\n                for (uint256 i = 0; i < courses[courseID].rollList.length; i++)\r\n                    courseMarks[courseID].invMarksList[j].push(\r\n                        courseMarks[courseID].marksList[i][j]\r\n                    );\r\n            courseMarks[courseID].invMarksExist = true;\r\n        } else {\r\n            for (\r\n                uint256 q = 0;\r\n                q < courseMarks[courseID].examIDList.length;\r\n                q++\r\n            )\r\n                for (uint256 p = 0; p < courses[courseID].rollList.length; p++)\r\n                    courseMarks[courseID].invMarksList[q][p] = courseMarks[\r\n                        courseID\r\n                    ].marksList[p][q];\r\n        }\r\n        added = true;\r\n    }\r\n\r\n    function getProfExamMarks(bytes32 courseID, bytes32 examID)\r\n        public\r\n        view\r\n        returns (\r\n            bytes32[] memory rolllist,\r\n            uint256[] memory markslist,\r\n            uint256 maxmarks,\r\n            uint256 weightage\r\n        )\r\n    {\r\n        require(\r\n            courseIds[courseID] &&\r\n                (courseInstructor[courseID] == msg.sender) &&\r\n                courses[courseID].marksExist,\r\n            \"getProfGrades\"\r\n        );\r\n        rolllist = courses[courseID].rollList;\r\n        weightage = courseMarks[courseID].weightage[examID];\r\n        for (uint256 i = 0; i < courseMarks[courseID].examIDList.length; i++) {\r\n            if (courseMarks[courseID].examIDList[i] == examID) {\r\n                maxmarks = courseMarks[courseID].maxMarksList[i];\r\n                markslist = courseMarks[courseID].invMarksList[i];\r\n                break;\r\n            }\r\n        }\r\n    }\r\n\r\n    function getStudentMarksGrades(bytes32 courseID, bytes32 rollNo)\r\n        public\r\n        view\r\n        returns (\r\n            bytes32[] memory examslist,\r\n            uint256[] memory weightages,\r\n            uint256[] memory maxMarkslist,\r\n            uint256[] memory markslist,\r\n            uint256 totalmarks,\r\n            uint256 grade\r\n        )\r\n    {\r\n        require(\r\n            courseIds[courseID] &&\r\n                ((courseInstructor[courseID] == msg.sender) ||\r\n                    courses[courseID].studentAddrVer[msg.sender]) &&\r\n                courses[courseID].rollNoVer[rollNo] &&\r\n                courses[courseID].marksExist,\r\n            \"getStudentMarks\"\r\n        );\r\n        examslist = courseMarks[courseID].examIDList;\r\n        weightages = courseMarks[courseID].weightageList;\r\n        maxMarkslist = courseMarks[courseID].maxMarksList;\r\n        for (uint256 i = 0; i < courses[courseID].rollList.length; i++) {\r\n            if (courses[courseID].rollList[i] == rollNo)\r\n                markslist = courseMarks[courseID].marksList[i];\r\n        }\r\n        totalmarks = courseMarks[courseID].totalMarks[rollNo];\r\n        grade = courseMarks[courseID].grades[rollNo];\r\n    }\r\n\r\n    function getProfMarksGrades(bytes32 courseID)\r\n        public\r\n        view\r\n        returns (\r\n            bytes32[] memory rolllist,\r\n            uint256[] memory totalmarks,\r\n            uint256[] memory gradelist\r\n        )\r\n    {\r\n        require(\r\n            courseIds[courseID] &&\r\n                (courseInstructor[courseID] == msg.sender) &&\r\n                courses[courseID].marksExist,\r\n            \"getProfGrades\"\r\n        );\r\n        rolllist = courses[courseID].rollList;\r\n        totalmarks = courseMarks[courseID].totalMarksList;\r\n        gradelist = courseMarks[courseID].gradeList;\r\n    }\r\n}\r\n",
  "sourcePath": "C:\\Users\\girid\\OneDrive\\Desktop\\de-grading\\contracts\\Grader.sol",
  "compiler": {
    "name": "solc",
    "version": "0.4.26+commit.4563c3fc.Emscripten.clang"
  },
  "schemaVersion": "3.4.7",
  "updatedAt": "2022-05-19T16:53:28.706Z",
  "networkType": "ethereum",
  "devdoc": {
    "methods": {}
  },
  "userdoc": {
    "methods": {}
  }
}